{
  "contractName": "SimpleStorage",
  "abi": [
    {
      "anonymous": false,
      "inputs": [
        {
          "indexed": false,
          "internalType": "address",
          "name": "owner",
          "type": "address"
        },
        {
          "indexed": false,
          "internalType": "address",
          "name": "buyer",
          "type": "address"
        },
        {
          "components": [
            {
              "internalType": "address payable",
              "name": "owner",
              "type": "address"
            },
            {
              "internalType": "string",
              "name": "Title",
              "type": "string"
            },
            {
              "internalType": "uint256",
              "name": "Price",
              "type": "uint256"
            },
            {
              "internalType": "string",
              "name": "Date",
              "type": "string"
            },
            {
              "internalType": "string",
              "name": "SongHash",
              "type": "string"
            },
            {
              "internalType": "string",
              "name": "SongArtist",
              "type": "string"
            },
            {
              "internalType": "uint256",
              "name": "genreId",
              "type": "uint256"
            }
          ],
          "indexed": false,
          "internalType": "struct SimpleStorage.Song",
          "name": "song",
          "type": "tuple"
        },
        {
          "indexed": false,
          "internalType": "string",
          "name": "dateDownloaded",
          "type": "string"
        }
      ],
      "name": "DownloadSong",
      "type": "event"
    },
    {
      "anonymous": false,
      "inputs": [
        {
          "indexed": false,
          "internalType": "address",
          "name": "songowner",
          "type": "address"
        },
        {
          "components": [
            {
              "internalType": "address payable",
              "name": "owner",
              "type": "address"
            },
            {
              "internalType": "string",
              "name": "Title",
              "type": "string"
            },
            {
              "internalType": "uint256",
              "name": "Price",
              "type": "uint256"
            },
            {
              "internalType": "string",
              "name": "Date",
              "type": "string"
            },
            {
              "internalType": "string",
              "name": "SongHash",
              "type": "string"
            },
            {
              "internalType": "string",
              "name": "SongArtist",
              "type": "string"
            },
            {
              "internalType": "uint256",
              "name": "genreId",
              "type": "uint256"
            }
          ],
          "indexed": false,
          "internalType": "struct SimpleStorage.Song",
          "name": "song",
          "type": "tuple"
        }
      ],
      "name": "SongAdded",
      "type": "event"
    },
    {
      "anonymous": false,
      "inputs": [
        {
          "components": [
            {
              "internalType": "address payable",
              "name": "owner",
              "type": "address"
            },
            {
              "internalType": "string",
              "name": "Title",
              "type": "string"
            },
            {
              "internalType": "uint256",
              "name": "Price",
              "type": "uint256"
            },
            {
              "internalType": "string",
              "name": "Date",
              "type": "string"
            },
            {
              "internalType": "string",
              "name": "SongHash",
              "type": "string"
            },
            {
              "internalType": "string",
              "name": "SongArtist",
              "type": "string"
            },
            {
              "internalType": "uint256",
              "name": "genreId",
              "type": "uint256"
            }
          ],
          "indexed": false,
          "internalType": "struct SimpleStorage.Song",
          "name": "song",
          "type": "tuple"
        },
        {
          "indexed": false,
          "internalType": "string",
          "name": "dateDeleted",
          "type": "string"
        }
      ],
      "name": "SongDeleted",
      "type": "event"
    },
    {
      "anonymous": false,
      "inputs": [
        {
          "indexed": false,
          "internalType": "address",
          "name": "owner",
          "type": "address"
        },
        {
          "components": [
            {
              "internalType": "address payable",
              "name": "owner",
              "type": "address"
            },
            {
              "internalType": "string",
              "name": "Title",
              "type": "string"
            },
            {
              "internalType": "uint256",
              "name": "Price",
              "type": "uint256"
            },
            {
              "internalType": "string",
              "name": "Date",
              "type": "string"
            },
            {
              "internalType": "string",
              "name": "SongHash",
              "type": "string"
            },
            {
              "internalType": "string",
              "name": "SongArtist",
              "type": "string"
            },
            {
              "internalType": "uint256",
              "name": "genreId",
              "type": "uint256"
            }
          ],
          "indexed": false,
          "internalType": "struct SimpleStorage.Song",
          "name": "song",
          "type": "tuple"
        },
        {
          "indexed": false,
          "internalType": "string",
          "name": "dateUpdated",
          "type": "string"
        }
      ],
      "name": "SongUpdated",
      "type": "event"
    },
    {
      "constant": false,
      "inputs": [
        {
          "internalType": "string",
          "name": "_Title",
          "type": "string"
        },
        {
          "internalType": "uint256",
          "name": "_Price",
          "type": "uint256"
        },
        {
          "internalType": "string",
          "name": "_Date",
          "type": "string"
        },
        {
          "internalType": "string",
          "name": "_SongHash",
          "type": "string"
        },
        {
          "internalType": "string",
          "name": "_SongArtist",
          "type": "string"
        },
        {
          "internalType": "uint256",
          "name": "_GenreId",
          "type": "uint256"
        }
      ],
      "name": "addSong",
      "outputs": [],
      "payable": false,
      "stateMutability": "nonpayable",
      "type": "function"
    },
    {
      "constant": false,
      "inputs": [
        {
          "components": [
            {
              "internalType": "address payable",
              "name": "owner",
              "type": "address"
            },
            {
              "internalType": "string",
              "name": "Title",
              "type": "string"
            },
            {
              "internalType": "uint256",
              "name": "Price",
              "type": "uint256"
            },
            {
              "internalType": "string",
              "name": "Date",
              "type": "string"
            },
            {
              "internalType": "string",
              "name": "SongHash",
              "type": "string"
            },
            {
              "internalType": "string",
              "name": "SongArtist",
              "type": "string"
            },
            {
              "internalType": "uint256",
              "name": "genreId",
              "type": "uint256"
            }
          ],
          "internalType": "struct SimpleStorage.Song",
          "name": "song",
          "type": "tuple"
        },
        {
          "internalType": "string",
          "name": "date",
          "type": "string"
        }
      ],
      "name": "downloadSong",
      "outputs": [],
      "payable": true,
      "stateMutability": "payable",
      "type": "function"
    },
    {
      "constant": true,
      "inputs": [
        {
          "internalType": "string",
          "name": "songHash",
          "type": "string"
        }
      ],
      "name": "getSong",
      "outputs": [
        {
          "components": [
            {
              "internalType": "address payable",
              "name": "owner",
              "type": "address"
            },
            {
              "internalType": "string",
              "name": "Title",
              "type": "string"
            },
            {
              "internalType": "uint256",
              "name": "Price",
              "type": "uint256"
            },
            {
              "internalType": "string",
              "name": "Date",
              "type": "string"
            },
            {
              "internalType": "string",
              "name": "SongHash",
              "type": "string"
            },
            {
              "internalType": "string",
              "name": "SongArtist",
              "type": "string"
            },
            {
              "internalType": "uint256",
              "name": "genreId",
              "type": "uint256"
            }
          ],
          "internalType": "struct SimpleStorage.Song",
          "name": "",
          "type": "tuple"
        }
      ],
      "payable": false,
      "stateMutability": "view",
      "type": "function"
    },
    {
      "constant": true,
      "inputs": [],
      "name": "getSongs",
      "outputs": [
        {
          "components": [
            {
              "internalType": "address payable",
              "name": "owner",
              "type": "address"
            },
            {
              "internalType": "string",
              "name": "Title",
              "type": "string"
            },
            {
              "internalType": "uint256",
              "name": "Price",
              "type": "uint256"
            },
            {
              "internalType": "string",
              "name": "Date",
              "type": "string"
            },
            {
              "internalType": "string",
              "name": "SongHash",
              "type": "string"
            },
            {
              "internalType": "string",
              "name": "SongArtist",
              "type": "string"
            },
            {
              "internalType": "uint256",
              "name": "genreId",
              "type": "uint256"
            }
          ],
          "internalType": "struct SimpleStorage.Song[]",
          "name": "",
          "type": "tuple[]"
        }
      ],
      "payable": false,
      "stateMutability": "view",
      "type": "function"
    },
    {
      "constant": false,
      "inputs": [],
      "name": "likeSong",
      "outputs": [],
      "payable": true,
      "stateMutability": "payable",
      "type": "function"
    },
    {
      "constant": false,
      "inputs": [
        {
          "internalType": "string",
          "name": "_Title",
          "type": "string"
        },
        {
          "internalType": "uint256",
          "name": "_Price",
          "type": "uint256"
        },
        {
          "internalType": "string",
          "name": "_Date",
          "type": "string"
        },
        {
          "internalType": "string",
          "name": "_SongHash",
          "type": "string"
        },
        {
          "internalType": "string",
          "name": "_oldHash",
          "type": "string"
        },
        {
          "internalType": "string",
          "name": "_SongArtist",
          "type": "string"
        },
        {
          "internalType": "uint256",
          "name": "_GenreId",
          "type": "uint256"
        },
        {
          "internalType": "string",
          "name": "_CoverImage",
          "type": "string"
        }
      ],
      "name": "updateSong",
      "outputs": [],
      "payable": true,
      "stateMutability": "payable",
      "type": "function"
    },
    {
      "constant": false,
      "inputs": [
        {
          "internalType": "string",
          "name": "songHash",
          "type": "string"
        },
        {
          "internalType": "uint256",
          "name": "index",
          "type": "uint256"
        },
        {
          "internalType": "string",
          "name": "date",
          "type": "string"
        }
      ],
      "name": "delSong",
      "outputs": [
        {
          "internalType": "bool",
          "name": "success",
          "type": "bool"
        }
      ],
      "payable": false,
      "stateMutability": "nonpayable",
      "type": "function"
    }
  ],
  "bytecode": "0x608060405234801561001057600080fd5b5061212c806100206000396000f3fe6080604052600436106100705760003560e01c80635bfd8bc91161004e5780635bfd8bc9146100f9578063a9dad8d314610115578063ad0481ee1461011f578063d37e08591461015c57610070565b806332def4be1461007557806350ef10c2146100915780635565f660146100ce575b600080fd5b61008f600480360361008a91908101906117ff565b610185565b005b34801561009d57600080fd5b506100b860048036036100b39190810190611514565b610274565b6040516100c59190611e10565b60405180910390f35b3480156100da57600080fd5b506100e361059e565b6040516100f09190611db3565b60405180910390f35b610113600480360361010e91908101906115d4565b6108ef565b005b61011d610951565b005b34801561012b57600080fd5b5061014660048036036101419190810190611555565b610953565b6040516101539190611dd5565b60405180910390f35b34801561016857600080fd5b50610183600480360361017e9190810190611716565b610ee9565b005b670de0b6b3a76400006402540be4008360400151816101a057fe5b04023410156101e4576040517f08c379a00000000000000000000000000000000000000000000000000000000081526004016101db90611df0565b60405180910390fd5b816000015173ffffffffffffffffffffffffffffffffffffffff166108fc349081150290604051600060405180830381858888f1935050505015801561022e573d6000803e3d6000fd5b507fadba9bd7d7e3e301c4bc0183ab0f36a044f4953677dd5ebb6c705ea52cec213882600001513384846040516102689493929190611ceb565b60405180910390a15050565b61027c6110a3565b60018260405161028c9190611cd4565b90815260200160405180910390206040518060e00160405290816000820160009054906101000a900473ffffffffffffffffffffffffffffffffffffffff1673ffffffffffffffffffffffffffffffffffffffff1673ffffffffffffffffffffffffffffffffffffffff168152602001600182018054600181600116156101000203166002900480601f0160208091040260200160405190810160405280929190818152602001828054600181600116156101000203166002900480156103945780601f1061036957610100808354040283529160200191610394565b820191906000526020600020905b81548152906001019060200180831161037757829003601f168201915b5050505050815260200160028201548152602001600382018054600181600116156101000203166002900480601f0160208091040260200160405190810160405280929190818152602001828054600181600116156101000203166002900480156104405780601f1061041557610100808354040283529160200191610440565b820191906000526020600020905b81548152906001019060200180831161042357829003601f168201915b50505050508152602001600482018054600181600116156101000203166002900480601f0160208091040260200160405190810160405280929190818152602001828054600181600116156101000203166002900480156104e25780601f106104b7576101008083540402835291602001916104e2565b820191906000526020600020905b8154815290600101906020018083116104c557829003601f168201915b50505050508152602001600582018054600181600116156101000203166002900480601f0160208091040260200160405190810160405280929190818152602001828054600181600116156101000203166002900480156105845780601f1061055957610100808354040283529160200191610584565b820191906000526020600020905b81548152906001019060200180831161056757829003601f168201915b505050505081526020016006820154815250509050919050565b60606000805480602002602001604051908101604052809291908181526020016000905b828210156108e657838290600052602060002090600702016040518060e00160405290816000820160009054906101000a900473ffffffffffffffffffffffffffffffffffffffff1673ffffffffffffffffffffffffffffffffffffffff1673ffffffffffffffffffffffffffffffffffffffff168152602001600182018054600181600116156101000203166002900480601f0160208091040260200160405190810160405280929190818152602001828054600181600116156101000203166002900480156106d45780601f106106a9576101008083540402835291602001916106d4565b820191906000526020600020905b8154815290600101906020018083116106b757829003601f168201915b5050505050815260200160028201548152602001600382018054600181600116156101000203166002900480601f0160208091040260200160405190810160405280929190818152602001828054600181600116156101000203166002900480156107805780601f1061075557610100808354040283529160200191610780565b820191906000526020600020905b81548152906001019060200180831161076357829003601f168201915b50505050508152602001600482018054600181600116156101000203166002900480601f0160208091040260200160405190810160405280929190818152602001828054600181600116156101000203166002900480156108225780601f106107f757610100808354040283529160200191610822565b820191906000526020600020905b81548152906001019060200180831161080557829003601f168201915b50505050508152602001600582018054600181600116156101000203166002900480601f0160208091040260200160405190810160405280929190818152602001828054600181600116156101000203166002900480156108c45780601f10610899576101008083540402835291602001916108c4565b820191906000526020600020905b8154815290600101906020018083116108a757829003601f168201915b50505050508152602001600682015481525050815260200190600101906105c2565b50505050905090565b7ffbdb072675faf705cbb24153d65b9caaf04b3d3cf14f76929ce23f03237b0cd6336001876040516109219190611cd4565b90815260200160405180910390208860405161093f93929190611d6e565b60405180910390a15050505050505050565b565b600061095d6110a3565b60018560405161096d9190611cd4565b90815260200160405180910390206040518060e00160405290816000820160009054906101000a900473ffffffffffffffffffffffffffffffffffffffff1673ffffffffffffffffffffffffffffffffffffffff1673ffffffffffffffffffffffffffffffffffffffff168152602001600182018054600181600116156101000203166002900480601f016020809104026020016040519081016040528092919081815260200182805460018160011615610100020316600290048015610a755780601f10610a4a57610100808354040283529160200191610a75565b820191906000526020600020905b815481529060010190602001808311610a5857829003601f168201915b5050505050815260200160028201548152602001600382018054600181600116156101000203166002900480601f016020809104026020016040519081016040528092919081815260200182805460018160011615610100020316600290048015610b215780601f10610af657610100808354040283529160200191610b21565b820191906000526020600020905b815481529060010190602001808311610b0457829003601f168201915b50505050508152602001600482018054600181600116156101000203166002900480601f016020809104026020016040519081016040528092919081815260200182805460018160011615610100020316600290048015610bc35780601f10610b9857610100808354040283529160200191610bc3565b820191906000526020600020905b815481529060010190602001808311610ba657829003601f168201915b50505050508152602001600582018054600181600116156101000203166002900480601f016020809104026020016040519081016040528092919081815260200182805460018160011615610100020316600290048015610c655780601f10610c3a57610100808354040283529160200191610c65565b820191906000526020600020905b815481529060010190602001808311610c4857829003601f168201915b50505050508152602001600682015481525050905060008490505b600160008054905003811015610df45760006001820181548110610ca057fe5b906000526020600020906007020160008281548110610cbb57fe5b90600052602060002090600702016000820160009054906101000a900473ffffffffffffffffffffffffffffffffffffffff168160000160006101000a81548173ffffffffffffffffffffffffffffffffffffffff021916908373ffffffffffffffffffffffffffffffffffffffff16021790555060018201816001019080546001816001161561010002031660029004610d579291906110f6565b506002820154816002015560038201816003019080546001816001161561010002031660029004610d899291906110f6565b5060048201816004019080546001816001161561010002031660029004610db19291906110f6565b5060058201816005019080546001816001161561010002031660029004610dd99291906110f6565b50600682015481600601559050508080600101915050610c80565b50600060016000805490500381548110610e0a57fe5b9060005260206000209060070201600080820160006101000a81549073ffffffffffffffffffffffffffffffffffffffff0219169055600182016000610e50919061117d565b6002820160009055600382016000610e68919061117d565b600482016000610e78919061117d565b600582016000610e88919061117d565b600682016000905550506000805480919060019003610ea791906111c5565b507f32a0a39e8e0b8ce7e1b2b8814dc7aa9320a1ab711ecab5262e3da3977b8d44bf8184604051610ed9929190611e32565b60405180910390a1509392505050565b610ef16110a3565b33816000019073ffffffffffffffffffffffffffffffffffffffff16908173ffffffffffffffffffffffffffffffffffffffff1681525050868160200181905250828160a0018190525085816040018181525050848160600181905250818160c00181815250508381608001819052506000819080600181540180825580915050906001820390600052602060002090600702016000909192909190915060008201518160000160006101000a81548173ffffffffffffffffffffffffffffffffffffffff021916908373ffffffffffffffffffffffffffffffffffffffff1602179055506020820151816001019080519060200190610ff29291906111f7565b506040820151816002015560608201518160030190805190602001906110199291906111f7565b5060808201518160040190805190602001906110369291906111f7565b5060a08201518160050190805190602001906110539291906111f7565b5060c082015181600601555050507fad067621cca88ea9fc21cbaf56ccf6c7dbfbbced169d42c9956943af4a54c3063382604051611092929190611d3e565b60405180910390a150505050505050565b6040518060e00160405280600073ffffffffffffffffffffffffffffffffffffffff1681526020016060815260200160008152602001606081526020016060815260200160608152602001600081525090565b828054600181600116156101000203166002900490600052602060002090601f016020900481019282601f1061112f578054855561116c565b8280016001018555821561116c57600052602060002091601f016020900482015b8281111561116b578254825591600101919060010190611150565b5b5090506111799190611277565b5090565b50805460018160011615610100020316600290046000825580601f106111a357506111c2565b601f0160209004906000526020600020908101906111c19190611277565b5b50565b8154818355818111156111f2576007028160070283600052602060002091820191016111f1919061129c565b5b505050565b828054600181600116156101000203166002900490600052602060002090601f016020900481019282601f1061123857805160ff1916838001178555611266565b82800160010185558215611266579182015b8281111561126557825182559160200191906001019061124a565b5b5090506112739190611277565b5090565b61129991905b8082111561129557600081600090555060010161127d565b5090565b90565b61132f91905b8082111561132b57600080820160006101000a81549073ffffffffffffffffffffffffffffffffffffffff02191690556001820160006112e2919061117d565b60028201600090556003820160006112fa919061117d565b60048201600061130a919061117d565b60058201600061131a919061117d565b6006820160009055506007016112a2565b5090565b90565b600081359050611341816120bb565b92915050565b600082601f83011261135857600080fd5b813561136b61136682611e96565b611e69565b9150808252602083016020830185838301111561138757600080fd5b611392838284612027565b50505092915050565b600082601f8301126113ac57600080fd5b81356113bf6113ba82611ec2565b611e69565b915080825260208301602083018583830111156113db57600080fd5b6113e6838284612027565b50505092915050565b600060e0828403121561140157600080fd5b61140b60e0611e69565b9050600061141b84828501611332565b600083015250602082013567ffffffffffffffff81111561143b57600080fd5b61144784828501611347565b602083015250604061145b848285016114ff565b604083015250606082013567ffffffffffffffff81111561147b57600080fd5b61148784828501611347565b606083015250608082013567ffffffffffffffff8111156114a757600080fd5b6114b384828501611347565b60808301525060a082013567ffffffffffffffff8111156114d357600080fd5b6114df84828501611347565b60a08301525060c06114f3848285016114ff565b60c08301525092915050565b60008135905061150e816120d2565b92915050565b60006020828403121561152657600080fd5b600082013567ffffffffffffffff81111561154057600080fd5b61154c8482850161139b565b91505092915050565b60008060006060848603121561156a57600080fd5b600084013567ffffffffffffffff81111561158457600080fd5b6115908682870161139b565b93505060206115a1868287016114ff565b925050604084013567ffffffffffffffff8111156115be57600080fd5b6115ca8682870161139b565b9150509250925092565b600080600080600080600080610100898b0312156115f157600080fd5b600089013567ffffffffffffffff81111561160b57600080fd5b6116178b828c0161139b565b98505060206116288b828c016114ff565b975050604089013567ffffffffffffffff81111561164557600080fd5b6116518b828c0161139b565b965050606089013567ffffffffffffffff81111561166e57600080fd5b61167a8b828c0161139b565b955050608089013567ffffffffffffffff81111561169757600080fd5b6116a38b828c0161139b565b94505060a089013567ffffffffffffffff8111156116c057600080fd5b6116cc8b828c0161139b565b93505060c06116dd8b828c016114ff565b92505060e089013567ffffffffffffffff8111156116fa57600080fd5b6117068b828c0161139b565b9150509295985092959890939650565b60008060008060008060c0878903121561172f57600080fd5b600087013567ffffffffffffffff81111561174957600080fd5b61175589828a0161139b565b965050602061176689828a016114ff565b955050604087013567ffffffffffffffff81111561178357600080fd5b61178f89828a0161139b565b945050606087013567ffffffffffffffff8111156117ac57600080fd5b6117b889828a0161139b565b935050608087013567ffffffffffffffff8111156117d557600080fd5b6117e189828a0161139b565b92505060a06117f289828a016114ff565b9150509295509295509295565b6000806040838503121561181257600080fd5b600083013567ffffffffffffffff81111561182c57600080fd5b611838858286016113ef565b925050602083013567ffffffffffffffff81111561185557600080fd5b6118618582860161139b565b9150509250929050565b60006118778383611b44565b905092915050565b61188881611ff1565b82525050565b61189781611fa9565b82525050565b60006118a882611f13565b6118b28185611f41565b9350836020820285016118c485611eee565b8060005b8581101561190057848403895281516118e1858261186b565b94506118ec83611f34565b925060208a019950506001810190506118c8565b50829750879550505050505092915050565b61191b81611fbb565b82525050565b600061192c82611f29565b6119368185611f63565b9350611946818560208601612036565b61194f8161209d565b840191505092915050565b600061196582611f29565b61196f8185611f74565b935061197f818560208601612036565b80840191505092915050565b600061199682611f1e565b6119a08185611f52565b93506119b0818560208601612036565b6119b98161209d565b840191505092915050565b6000815460018116600081146119e15760018114611a0757611a4b565b607f60028304166119f28187611f52565b955060ff198316865260208601935050611a4b565b60028204611a158187611f52565b9550611a2085611efe565b60005b82811015611a4257815481890152600182019150602081019050611a23565b80880195505050505b505092915050565b6000611a60601083611f63565b91507f4e6f7420656e6f756768206574686572000000000000000000000000000000006000830152602082019050919050565b600060e083016000830151611aab600086018261188e565b5060208301518482036020860152611ac3828261198b565b9150506040830151611ad86040860182611cc5565b5060608301518482036060860152611af0828261198b565b91505060808301518482036080860152611b0a828261198b565b91505060a083015184820360a0860152611b24828261198b565b91505060c0830151611b3960c0860182611cc5565b508091505092915050565b600060e083016000830151611b5c600086018261188e565b5060208301518482036020860152611b74828261198b565b9150506040830151611b896040860182611cc5565b5060608301518482036060860152611ba1828261198b565b91505060808301518482036080860152611bbb828261198b565b91505060a083015184820360a0860152611bd5828261198b565b91505060c0830151611bea60c0860182611cc5565b508091505092915050565b600060e083016000808401549050611c0c81612069565b611c19600087018261188e565b50600184018583036020870152611c3083826119c4565b92505060028401549050611c4381612083565b611c506040870182611cc5565b50600384018583036060870152611c6783826119c4565b925050600484018583036080870152611c8083826119c4565b9250506005840185830360a0870152611c9983826119c4565b92505060068401549050611cac81612083565b611cb960c0870182611cc5565b50819250505092915050565b611cce81611fe7565b82525050565b6000611ce0828461195a565b915081905092915050565b6000608082019050611d00600083018761187f565b611d0d602083018661187f565b8181036040830152611d1f8185611a93565b90508181036060830152611d338184611921565b905095945050505050565b6000604082019050611d53600083018561187f565b8181036020830152611d658184611a93565b90509392505050565b6000606082019050611d83600083018661187f565b8181036020830152611d958185611bf5565b90508181036040830152611da98184611921565b9050949350505050565b60006020820190508181036000830152611dcd818461189d565b905092915050565b6000602082019050611dea6000830184611912565b92915050565b60006020820190508181036000830152611e0981611a53565b9050919050565b60006020820190508181036000830152611e2a8184611a93565b905092915050565b60006040820190508181036000830152611e4c8185611a93565b90508181036020830152611e608184611921565b90509392505050565b6000604051905081810181811067ffffffffffffffff82111715611e8c57600080fd5b8060405250919050565b600067ffffffffffffffff821115611ead57600080fd5b601f19601f8301169050602081019050919050565b600067ffffffffffffffff821115611ed957600080fd5b601f19601f8301169050602081019050919050565b6000819050602082019050919050565b60008190508160005260206000209050919050565b600081519050919050565b600081519050919050565b600081519050919050565b6000602082019050919050565b600082825260208201905092915050565b600082825260208201905092915050565b600082825260208201905092915050565b600081905092915050565b600073ffffffffffffffffffffffffffffffffffffffff82169050919050565b6000819050919050565b6000611fb482611fc7565b9050919050565b60008115159050919050565b600073ffffffffffffffffffffffffffffffffffffffff82169050919050565b6000819050919050565b6000611ffc82612003565b9050919050565b600061200e82612015565b9050919050565b600061202082611fc7565b9050919050565b82818337600083830152505050565b60005b83811015612054578082015181840152602081019050612039565b83811115612063576000848401525b50505050565b600061207c612077836120ae565b611f7f565b9050919050565b6000612096612091836120ae565b611f9f565b9050919050565b6000601f19601f8301169050919050565b60008160001c9050919050565b6120c481611fa9565b81146120cf57600080fd5b50565b6120db81611fe7565b81146120e657600080fd5b5056fea365627a7a7231582029b99b0c283002d3f3a73413f21f8aea9fc336618740a5cd024eac0ba16d41286c6578706572696d656e74616cf564736f6c63430005100040",
  "source": "pragma solidity ^0.5.0;\npragma experimental ABIEncoderV2;\n\ncontract SimpleStorage {\n    struct Song {\n        address payable owner;\n        string Title;\n        uint256 Price;\n        //int256 downloads;\n        string Date;\n        string SongHash; //SongHash\n        string SongArtist;\n        uint256 genreId;\n       // string CoverImage;\n    }\n\n    //events\n    event SongAdded(address songowner, Song song);\n    event SongUpdated(address owner, Song song, string dateUpdated);\n    event SongDeleted(Song song, string dateDeleted);\n    event DownloadSong(\n        address owner,\n        address buyer,\n        Song song,\n        string dateDownloaded\n    );\n\n    Song[] allSongs;\n    mapping(string => Song) songStruct;\n\n    function addSong(\n        string memory _Title,\n        uint256 _Price,\n        string memory _Date,\n        string memory _SongHash,\n        string memory _SongArtist,\n        uint256 _GenreId\n        //string memory _CoverImage\n    ) public {\n        Song memory newSong;\n        newSong.owner = msg.sender;\n        newSong.Title = _Title;\n        newSong.SongArtist = _SongArtist;\n        newSong.Price = _Price;\n        newSong.Date = _Date;\n        //newSong.downloads = 0;\n        newSong.genreId = _GenreId;\n        newSong.SongHash = _SongHash;\n        //newSong.CoverImage = _CoverImage;\n\n        allSongs.push(newSong);\n        //songStruct[_SongHash] = newSong;\n\n        //emit songAdded event\n        emit SongAdded(msg.sender, newSong);\n    }\n\n    function downloadSong(Song memory song, string memory date) public payable {\n        require(\n            msg.value >= ((song.Price / (10**10)) * 1 ether),\n            \"Not enough ether\"\n        );\n        //song.downloads += 1;\n        song.owner.transfer(msg.value);\n\n        emit DownloadSong(song.owner, msg.sender, song, date);\n    }\n\n    function getSong(string memory songHash) public view returns (Song memory) {\n        return songStruct[songHash];\n    }\n\n    function getSongs() public view returns (Song[] memory) {\n        return allSongs;\n    }\n\n    //like song\n    function likeSong() public payable {}\n\n    //update song\n    function updateSong(\n        string memory _Title,\n        uint256 _Price,\n        string memory _Date,\n        string memory _SongHash,\n        string memory _oldHash,\n        string memory _SongArtist,\n        uint256 _GenreId,\n        string memory _CoverImage\n    ) public payable {\n        //songStruct[_oldHash]\n\n        //emit SongUpdated event\n        emit SongUpdated(msg.sender, songStruct[_SongHash], _Date);\n    }\n\n    //delete Song\n    function delSong(\n        string memory songHash,\n        uint256 index,\n        string memory date\n    ) public returns (bool success) {\n        Song memory song = songStruct[songHash];\n\n        for (uint256 i = index; i < allSongs.length - 1; i++) {\n            allSongs[i] = allSongs[i + 1];\n        }\n        delete allSongs[allSongs.length - 1];\n        //delete songStruct[lastHash];\n        allSongs.length--;\n\n        emit SongDeleted(song, date);\n    }\n}\n",
  "sourcePath": "D:\\myReactApps\\react_dapp\\contracts\\SimpleStorage.sol",
  "compiler": {
    "name": "solc",
    "version": "0.5.16+commit.9c3226ce.Emscripten.clang"
  },
  "schemaVersion": "3.2.0",
  "updatedAt": "2021-04-27T23:03:30.523Z",
  "devdoc": {
    "methods": {}
  },
  "userdoc": {
    "methods": {}
  }
}